:020000040800F2
:100000003006002045010008B10700083D03000844
:10001000AD070008B9010008BB110008000000008E
:10002000000000000000000000000000F50A0008C9
:10003000BD0100080000000039080008090C000894
:100040005F0100085F0100085F0100085F01000810
:100050005F0100085F0100085F0100085F01000800
:100060005F0100085F0100085F0100085F010008F0
:100070005F0100085F0100085F0100085F010008E0
:100080005F0100085F0100085F0100085F010008D0
:100090005F0100085F0100085F0100085F010008C0
:1000A0005F0100085F0100085F0100085F010008B0
:1000B0005F0100085F0100085F0100085F010008A0
:1000C0005F0100085F0100085F0100085F01000890
:1000D0005F0100085F0100085F010008B50F00081C
:1000E0005F0100085F0100085F0100085F01000870
:1000F0005F0100085F0100085F0100085F01000860
:100100005F0100085F0100085F0100085F0100084F
:100110005F0100085F010008A10C00085F010008F2
:100120005F0100085F0100085F0100085F0100082F
:10013000DFF80CD000F02EF800480047DD1300086F
:10014000300600200648804706480047FEE7FEE7E5
:10015000FEE7FEE7FEE7FEE7FEE7FEE7FEE7FEE777
:10016000410C00083101000830B50B460146002063
:100170002022012409E021FA02F59D4205D303FA69
:1001800002F5491B04FA02F52844151EA2F10102EA
:10019000F1DC30BD064C074D06E0E06840F001039D
:1001A00094E8070098471034AC42F6D3FFF7C4FF39
:1001B000401400086014000800BFFEE7704700000C
:1001C0000146114A12684A434FF0E0235A61002267
:1001D0009A611A46126942F001021A6100BF4FF09B
:1001E000E022106900F001021AB100F48032002A06
:1001F000F5D04FF0E022126922F001024FF0E02327
:100200001A6100229A617047040000202DE9F04134
:10021000024600250026002000230024002791F834
:1002200003C00CF00F0591F803C00CF0100CBCF1EA
:10023000000F03D091F802C04CEA050591F800C008
:10024000BCF1000F31D0146800202BE04FF0010CFE
:100250000CFA00F3B1F800C00CEA03069E4220D16C
:1002600083004FF00F0C0CFA03F7BC4305FA03FCB4
:100270004CEA040491F803C0BCF1280F06D14FF0FA
:10028000010C0CFA00FCC2F814C00AE091F803C09B
:10029000BCF1480F05D14FF0010C0CFA00FCC2F87C
:1002A00010C0401C0828D1D31460B1F800C0BCF1C4
:1002B000FF0F34DD546800202EE000F1080C4FF0F1
:1002C000010808FA0CF3B1F800C00CEA03069E42DC
:1002D00021D183004FF00F0C0CFA03F7BC4305FA51
:1002E00003FC4CEA040491F803C0BCF1280F05D1CB
:1002F00000F1080C08FA0CF8C2F8148091F803C059
:10030000BCF1480F07D100F1080C4FF0010808FAC2
:100310000CF8C2F81080401C0828CED35460BDE809
:10032000F0810246002093680B400BB1012000E0F1
:1003300000207047416170470161704700BFFEE7D0
:1003400008B50121042000F089FA0120ADF8000071
:1003500004208DF8030069460748FFF757FF012185
:100360000548FFF7DEFF054908700846017804A03C
:1003700000F026FF08BD0000000801401A00002020
:100380000D427574746F6E5F4C6173745F4C65766B
:10039000656C3A256400000010B501213348FFF771
:1003A000C0FF044632480078844219D031480078B2
:1003B000401CC0B22F490870022811DB2C48047081
:1003C000002008702C480078092803D100202A4911
:1003D000087005E02848007810B901202649087007
:1003E0002548007810B101283CD121E02048007850
:1003F00001281CD121480078401CC0B21F49087058
:100400004B2811DB002008701D49087003201D498E
:1004100008701DA000F0D4FE18480078FF2806D10F
:100420004B201649087002E00020164908701AE0B7
:100430001448007858B909200F49087000200C4969
:1004400008700E49087016A000F0BAFE09E00D48C9
:100450000078032805D100200849087009200649C2
:10046000087000E000BF00BF10BD000000080140A0
:100470001A0000201C0000201B0000201E0000208D
:100480001F0000201D0000200D427574746F6E2047
:100490004C6F6E67205072657373656400000000D6
:1004A0000D427574746F6E205072657373656400CD
:1004B0002DE9F04107460C4615461E462A2000F05D
:1004C0003BF9384600F028F9284600F025F92B20A2
:1004D00000F032F9204600F01FF9304600F01CF918
:1004E0002C2000F029F9BDE8F0812DE9F0470646FF
:1004F0000F4614461D46DDF820A0681E83B2601E1C
:1005000082B239463046FFF7D3FFB8460EE0B14617
:1005100006E0504600F000F909F101001FFA80F9E9
:10052000A145F6DB08F101001FFA80F8A845EEDBD3
:10053000BDE8F08708B500F00BFA4FF480717448FD
:10054000FFF7F8FE6420FFF73BFE4FF48071704820
:10055000FFF7F2FE6420FFF733FE4FF480516D4841
:10056000FFF7EAFE4FF4FA70FFF72AFE112000F0C1
:10057000E3F86420FFF724FE362000F0DDF8702059
:1005800000F0D3F83A2000F0D7F8052000F0CDF8BD
:10059000B22000F0D1F80C2000F0C7F80C2000F0D9
:1005A000C4F8002000F0C1F8332000F0BEF833207A
:1005B00000F0BBF8B72000F0BFF8352000F0B5F828
:1005C000BB2000F0B9F8352000F0AFF8C02000F0F3
:1005D000B3F82C2000F0A9F8C22000F0ADF80120FB
:1005E00000F0A3F8C32000F0A7F8132000F09DF856
:1005F000C42000F0A1F8202000F097F8C62000F0F9
:100600009BF80F2000F091F8CA2000F095F80F2019
:1006100000F08BF8C82000F08FF8082000F085F873
:10062000552000F089F8902000F07FF8D02000F0ED
:1006300083F8A42000F079F8A12000F076F8E020FB
:1006400000F07AF8D02000F070F8002000F06DF88B
:10065000062000F06AF8092000F067F80B2000F08F
:1006600064F82A2000F061F83C2000F05EF8552084
:1006700000F05BF84B2000F058F8082000F055F827
:10068000162000F052F8142000F04FF8192000F066
:100690004CF8202000F049F8E12000F04DF8D0207F
:1006A00000F043F8002000F040F8062000F03DF88C
:1006B000092000F03AF80B2000F037F8292000F06C
:1006C00034F8362000F031F8542000F02EF84B209A
:1006D00000F02BF80D2000F028F8162000F025F887
:1006E000142000F022F8212000F01FF8202000F054
:1006F0001CF8292000F020F84FF6FF70EF2340F29D
:100700003F12002100900846FFF7EFFE08BD0000F1
:1007100000100140000C014010B50446201200F00A
:100720001BF8E0B200F018F810BD10B504462046E2
:1007300000F012F810BD000010B5044680210548F5
:10074000FFF7F8FD204600F007F880210148FFF789
:10075000F3FD10BD0010014010B5044640210548CE
:10076000FFF7E8FD204600F063F940210148FFF75C
:10077000E3FD10BD0010014008B50121102000F07C
:100780006DF810208DF8030003208DF80200302052
:10079000ADF8000069460448FFF738FD30210248F3
:1007A000FFF7CAFD08BD00000010014000BFFEE7D2
:1007B0007047000070B5002100230F22C47804B3F5
:1007C000154C246804F4E064C4F5E064210AC1F126
:1007D0000403CA40447804FA03F1847814402143A6
:1007E00009010E4C0678A155047804F01F05012478
:1007F000AC4005786D11AD0005F1E025C5F800416C
:1008000009E0047804F01F050124AC40044D06788B
:10081000761145F8264070BD0CED00E000E400E0E4
:1008200080E100E002490143024A11607047000084
:100830000000FA050CED00E07047000029B1064AFF
:10084000D2690243044BDA6104E0034AD26982436D
:10085000014BDA61704700000010024029B1064ADE
:1008600092690243044B9A6104E0034A926982430D
:10087000014B9A61704700000010024030B5002122
:100880000022002400232D4D6D6805F00C0121B1DC
:10089000042905D0082923D105E0294D056022E06F
:1008A000274D05601FE0254D6D6805F47012234D3E
:1008B0006D6805F48034022505EB92421CB9214D88
:1008C000554305600BE01D4D6D6805F400351DB105
:1008D0001C4D5543056002E0194D5543056002E08B
:1008E000174D056000BF00BF144D6D6805F0F001A5
:1008F0000909154D6B5C0568DD4045600F4D6D685D
:1009000005F4E061090A104D6B5C4568DD408560C7
:100910000A4D6D6805F46051C90A0B4D6B5C456862
:10092000DD40C560054D6D6805F44041890B074DFC
:100930006B5CC568B5FBF3F5056130BD0010024086
:1009400000127A0000093D00200000203000002045
:1009500000B587B001211820FFF780FF012188032F
:10096000FFF76CFF4FF40050ADF8040003208DF842
:10097000060018208DF8070001A92A48FFF746FC59
:100980004FF40040ADF8040001A92648FFF73EFCF3
:100990004020ADF8040010208DF8070001A922487E
:1009A000FFF734FC4FF48070ADF8040001A91E4835
:1009B000FFF72CFC8020ADF8040001A91A48FFF7CE
:1009C00025FC4FF48050ADF8040001A91548FFF74D
:1009D0001DFC40211448FFF7AFFC0020ADF80800D3
:1009E0004FF48270ADF80A000020ADF80C00022030
:1009F000ADF80E000120ADF810004002ADF8120075
:100A00000020ADF81400ADF816000720ADF818006E
:100A100002A9064800F050F80121044800F032F81D
:100A200007B000BD000C014000100140003800403C
:100A300070B50546002405E0601CC4B2C82C01DD79
:100A4000002070BD02210E4800F028F80028F3D0E5
:100A500029460B4800F02EF8002405E0601CC4B2C3
:100A6000C82C01DD0020ECE70121054800F016F854
:100A70000028F3D0024800F01AF8C0B2E1E7000005
:100A80000038004021B1028842F04002028004E0B8
:100A900002884FF6BF731A4002807047024600205A
:100AA00013890B400BB1012000E000207047014684
:100AB000888970478181704710B50022028802F44E
:100AC00041520B884C8823438C882343CC88234392
:100AD0000C8923434C8923438C892343CC892343AA
:100AE0001A430280838B4FF2FF74234083830B8A67
:100AF000038210BD704710B500F002F810BD000071
:100B00000CB50020019000903348006840F480301C
:100B10003149086000BF3048006800F400300090A0
:100B20000198401C0190009818B90198B0F5A06F89
:100B3000F1D12948006800F4003010B10120009084
:100B400001E0002000900098012843D1234800686C
:100B500040F01000214908600846006820F00300BA
:100B600008600846006840F0020008601A484068C3
:100B7000194948600846406848600846406840F4A3
:100B8000806048600846406820F47C104860084651
:100B9000406840F4E81048600846006840F0807003
:100BA000086000BF0C48006800F000700028F9D011
:100BB0000948406820F0030007494860084640683B
:100BC00040F00200486000BF0348406800F00C009D
:100BD0000828F9D10CBD000000100240002002409E
:100BE000042808D14FF0E021096941F004014FF0D9
:100BF000E022116107E04FF0E021096921F00401D2
:100C00004FF0E022116170477047000010B50446B4
:100C10006FF00400FFF7E4FFE11704EB5171C1F33B
:100C2000CF01054A1180104600884FF47A7148437D
:100C30000249086010BD00000000002004000020F0
:100C400010B51348006840F00100114908600846DB
:100C50004068104908400E494860084600680E493F
:100C600008400B4908600846006820F480200860AE
:100C70000846406820F4FE0048604FF41F0088607A
:100C8000FFF739FF4FF000600449086010BD000015
:100C9000001002400000FFF8FFFFF6FE08ED00E044
:100CA00010B50121404800F09DF800287BD03F4856
:100CB0000068401C3D490860084600681921B0FBE7
:100CC000F1F201FB120028B93948006840F0100029
:100CD00037490860354800686421B0FBF1F201FB38
:100CE000120028B93248006840F0400030490860DE
:100CF0002E4800684FF47A71B0FBF1F201FB12004C
:100D000028B92B48006840F400702949086027483A
:100D1000006847F23051B0FBF1F201FB120028B934
:100D20002348006840F48060214908601F4800683B
:100D30004EF66021B0FBF1F201FB1200E8B91C484D
:100D4000006840F400601A4908601A480068401CB6
:100D500018490860084600683C21B0FBF1F201FB2D
:100D6000120050B91248006840F4804010490860F1
:100D700011480068401C104908600C4800684EF695
:100D80006021884202D10020084908600B480078A1
:100D9000002804DD09480078401E08490870012138
:100DA000014800F010F810BD0010004008000020BD
:100DB0000C0000201000002014000020190000206A
:100DC000CA4302827047CA430282704721B1028837
:100DD00042F00102028004E002884FF6FE731A40DE
:100DE0000280704730B50246002000230024158A97
:100DF00005EA0103958905EA010413B10CB101204C
:100E000000E0002030BD1AB183890B43838102E0EA
:100E100083898B4383817047002202881D4B98424F
:100E20000ED01D4B98420BD0B0F1804F08D01B4B19
:100E3000984205D01A4B984202D01A4B984204D1DE
:100E40004FF68F731A404B881A43174B984207D0BE
:100E5000164B984204D04FF6FF431A40CB881A43F2
:100E600002808B8883850B8803850A4B98420BD0C0
:100E7000094B984208D00E4B984205D00D4B984232
:100E800002D00D4B984201D10B7A03860123838255
:100E900070470000002C0140003401400004004075
:100EA00000080040000C004000100040001400400A
:100EB0000040014000440140004801401FB50121AD
:100EC0001020FFF7BBFC0020ADF80A00ADF80600CB
:100ED0000920ADF8080041F61F40ADF804000020DD
:100EE0008DF80C0001A91048FFF796FF01210E486C
:100EF000FFF766FF012211460B48FFF784FF3620FB
:100F00008DF8000001208DF8030002208DF801000B
:100F100001208DF802006846FFF74CFC01210248D1
:100F2000FFF754FF1FBD00000010004010B586B051
:100F3000044601210420FFF791FC01218803FFF7FB
:100F40008DFC18208DF8170003208DF816004FF443
:100F50000070ADF8140005A91448FFF757F90420F4
:100F60008DF8170003208DF816004FF48060ADF85F
:100F7000140005A90D48FFF749F901940020ADF8C8
:100F800010000C20ADF80E000020ADF80C00ADF8FC
:100F90000A00ADF8080001A9054800F099F8012100
:100FA000034800F051F806B010BD000000080140F1
:100FB0000038014010B540F225511F4800F05DF89F
:100FC000E8B11D4800F0F0F8C4B264B920211B4814
:100FD000B0F8F621B0F8F601401C184BA3F8F60162
:100FE0001846815427E01548B0F8F611B0F8F6011C
:100FF000401C124AA2F8F601104644541BE040F28D
:1010000024410D4800F039F8A8B10B4800880A487F
:10101000001D008800200949B1F8F611074A505414
:10102000114607A000F0CCF800200449A1F8F60111
:10103000012081F8F40110BD004800403800002074
:1010400025730D0A0000000021B1828942F400528C
:10105000828104E082894DF6FF731A4082817047D5
:1010600002460020B1F5007F00D100BF13880B407D
:101070000BB1012000E00020704770B5024600244B
:1010800000230025002040F66A16B14200D100BFBF
:10109000C1F3421501F01F03012606FA03F3012DE7
:1010A00002D19689334006E0022D02D1168A3340E0
:1010B00001E0968A33400C12012606FA04F41688E1
:1010C000344013B10CB1012000E0002070BD0000DD
:1010D0002DE9F04786B005460E460024A24600BF23
:1010E000A1460027B08900B100BF2F462C8A4CF6DC
:1010F000FF700440F08804432C82AC894EF6F31054
:101100000440B08831890843718908430443AC81A5
:10111000AC8A4FF6FF400440B0890443AC8201A87A
:10112000FFF7ACFB1F48874202D1DDF810A001E0B9
:10113000DDF80CA0A88900F4004040B10AEBCA0019
:1011400000EB0A1031684900B0FBF1F807E00AEB48
:10115000CA0000EB0A1031688900B0FBF1F8642086
:10116000B8FBF0F004012009642101FB1089A88973
:1011700000F4004040B1322000EBC900B0FBF1F0B8
:1011800000F00700044308E0322000EB091064215E
:10119000B0FBF1F000F00F0004432C8106B0BDE875
:1011A000F08700000038014001468888C0F308003D
:1011B0007047C1F308028280704700BFFEE700005D
:1011C0000FB4054B10B503A9044A029800F018F8B3
:1011D00010BC5DF814FB0000B913000834000020B7
:1011E00002E008C8121F08C1002AFAD170477047F0
:1011F000002001E001C1121F002AFBD1704700004E
:101200002DE9FF4F8BB09A460F460546002606E0B3
:1012100025280BD052460D9990476D1C761C2878D6
:101220000028F5D10FB03046BDE8F08F0024A0466D
:101230000122604900E0044315F8013F203B02FA17
:1012400003F00842F7D128782E2817D115F8010F9E
:1012500044F004042A280ED06FF02F022878A0F161
:10126000300109290AD808EB880102EB410100EBA3
:1012700001086D1CF2E757F8048B6D1C287869286B
:101280003ED006DC0028CDD063280BD0642804D1E2
:1012900036E0732810D075284BD052460D999047F0
:1012A000761C85E017F8040B8DF8000000208DF8FF
:1012B0000100E946012003E057F8049B4FF0FF309E
:1012C00061074FF0000401D40AE0641C44450DDAC4
:1012D0008442FADB19F804100029F6D106E0641CF8
:1012E0008442FCDB19F804100029F8D1264404E0FC
:1012F00019F8010B52460D999047641EF8D257E039
:1013000001CF4FF00A0B002802DA40422D2102E003
:10131000210504D52B218DF82410012103E0E107DC
:1013200005D02021F7E70DF1200908910CE00021FC
:10133000F9E701CF4FF00A0BF9E75946FEF714FF22
:1013400001F1300209F8012D0028F6D1ADEB0900BA
:1013500000F1200B600701D44FF00108D84502DDF1
:10136000A8EB0B0000E000208046002406E009A85E
:101370005246005D0D999047641C761C0898844283
:10138000F5DB04E0302052460D999047761CB8F109
:101390000001A8F10108F5DC05E019F8010B52463F
:1013A0000D999047761CBBF10001ABF1010BF4DC09
:1013B0006D1C34E70928010070B504460D4600BFD6
:1013C00040210548FFF74CFE0028F9D0A1B20248A1
:1013D000FFF7EFFE204670BD003801404FF4A060DB
:1013E000FFF720FAFFF7C8F94820FFF70FFC4FF48A
:1013F000E130FFF79BFDFEF7A3FFFFF75FFDFFF76F
:1014000099F80FE008A0FFF7DBFE0C48006800F039
:10141000100038B10948006820F010000749086042
:10142000FEF7BAFFEEE70000544849532049532025
:101430004120544553540D0A000000000C000020C8
:10144000601400080000002038000000E0110008CF
:101450009814000838000020F8050000F01100087A
:10146000000000000000000000000000000000007C
:10147000000000000000000000000000000000006C
:10148000000000000102030401020304060708092A
:08149000020406080000000040
:0400000508000131BD
:00000001FF
